:100000000C9461000C9489000C9489000C94890074
:100010000C9489000C9489000C9489000C9489003C
:100020000C9489000C9489000C9489000C9489002C
:100030000C9489000C9489000C9489000C9489001C
:100040000C945D0A0C9489000C94E90C0C941B0D23
:100050000C9489000C9489000C9489000C948900FC
:100060000C945F050C9489004F5A3A004F593A009E
:100070004F583A0000000008000201000003040786
:100080000000000000000000010204081020408071
:1000900001020408102001020408102004040404D2
:1000A0000404040402020202020203030303030322
:1000B00000000000250028002B00760175044B0D80
:1000C0007E0111241FBECFEFD8E0DEBFCDBF11E00F
:1000D000A0E0B1E0ECE1F7E202C005900D92AE3C89
:1000E000B107D9F723E0AEECB1E001C01D92AB340B
:1000F000B207E1F710E0C0ECD0E004C02297FE01A7
:100100000E943312CA3BD107C9F70E94D30F0C9447
:1001100081130C9400002FE731E0FC013183208330
:10012000089508952FE731E0FC01318320830C947A
:10013000E20F26E040E855E260E070E08AEA92E0F3
:100140000E948D0C69E070E087ED91E00E947307DA
:10015000811107C066E071E08AEA92E00E94EF0D2B
:10016000FFCF68EE73E080E090E00E94D60A61E085
:1001700087ED91E00C941A074F925F926F927F92F5
:100180008F929F92AF92BF92CF92DF92EF92FF92A7
:10019000CF93DF936B017C01C42F20E030E0A901F5
:1001A0000E944A1087FF09C06DE28AEA92E00E942D
:1001B000F10DF7FAF094F7F8F094C701B6010E9438
:1001C000B6102B013C014AE050E08AEA92E00E941E
:1001D000A70ECC2309F47BC063E471E08AEA92E0C5
:1001E0000E94EF0DDFEFDC0F812C912C54018394E2
:1001F000C15048F0AAE0B0E0A50194010E94261287
:100200004B015C01F5CF20E030E0A901C701B60148
:100210000E949911662457FC6094762C87FD09C0D2
:10022000C301B2010E94E9109B01AC01C701B601F4
:1002300006C0C301B2010E94E910A70196010E9405
:10024000E50F6B017C01C501B4010E94E7109B0121
:10025000AC01C701B6010E949D110E94BB10962EF1
:10026000A72EB82EC92F2AE0C22ED12CE12CF12CBA
:10027000A70196010E940412CA01B9012115310596
:100280004105510511F0D150F3CFDD2341F065E474
:1002900071E08AEA92E00E94EF0DD150F6CF2AE099
:1002A00030E0492D5A2D6B2D7C2F8AEA92E0DF91A8
:1002B000CF91FF90EF90DF90CF90BF90AF909F9045
:1002C0008F907F906F905F904F900C94AF0EDF9166
:1002D000CF91FF90EF90DF90CF90BF90AF909F9025
:1002E0008F907F906F905F904F90089528E24FEF2E
:1002F0005FEFBA0187ED91E00C94DE068FE791E0A5
:100300009093D8018093D70108950F931F93CF93B3
:10031000DF93CDB7DEB7E8970FB6F894DEBF0FBE18
:10032000CDBF67ED71E0CE0185960E94BF0967E4FD
:1003300071E08AEA92E00E94EF0D69A57AA58BA58B
:100340009CA545E00E94BC006AE471E08AEA92E064
:100350000E94EF0D6DA57EA58FA598A945E00E948E
:10036000BC006AE471E08AEA92E00E94EF0D69A99C
:100370007AA98BA99CA945E00E94BC006AE471E0BF
:100380008AEA92E00E94EF0D6DA17EA18FA198A54F
:1003900045E00E94BC008AEA92E00E94F80D1DAA86
:1003A0001EAA1FAA18AE8E010B5C1F4F9E012A5C6D
:1003B0003F4FAE01495C5F4FBE01685C7F4F87EDE8
:1003C00091E00E94E1076CE471E08AEA92E00E9409
:1003D000EF0D4AE050E068AD8AEA92E00E94BC0E60
:1003E0006FE471E08AEA92E00E94EF0D4AE050E08B
:1003F0006FA98AEA92E00E94BC0E62E571E08AEA87
:1004000092E00E94EF0D4AE050E06EA98AEA92E085
:100410000E94BC0E65E571E08AEA92E00E94EF0D51
:100420004AE050E06DA98AEA92E00E94BC0EBE014B
:100430006F5F7F4F87ED91E00E945A0960E770E09F
:100440008AEA92E00E94CC0D4D895E896F89788D91
:1004500022E030E08AEA92E00E94BE0F6CE670E093
:100460008AEA92E00E94CC0D498D5A8D6B8D7C8D6D
:1004700022E030E08AEA92E00E94BE0F68E670E077
:100480008AEA92E00E94CC0D4D8D5E8D6F8D78A131
:1004900022E030E08AEA92E00E94BE0F69E270E05A
:1004A00081EE91E00E94F60360E081EE91E00E940F
:1004B000A30381EE91E00E94720461E070E080E0AD
:1004C00090E00E94D60A41E050E069E270E081EEDF
:1004D00091E00E946F0481EE91E00E9453038093AB
:1004E000D60181FD06C068E571E08AEA92E00E94CB
:1004F000FC0D69E270E081EE91E00E94F60361E09C
:1005000081EE91E00E94A30381EE91E00E947204CB
:1005100061E070E080E090E00E94D60A40E250E0A6
:1005200069E270E081EE91E00E946F0404E010E067
:100530008091D2019091D301A091D401B091D501C5
:10054000BA2FA92F982F88278093D2019093D30197
:10055000A093D401B093D50181EE91E00E945303A2
:10056000AA2797FDA095BA2F4091D2015091D301AF
:100570006091D4017091D501482B592B6A2B7B2BAC
:100580004093D2015093D3016093D4017093D5016D
:100590000150110969F604E010E08091CE019091BC
:1005A000CF01A091D001B091D101BA2FA92F982FDE
:1005B00088278093CE019093CF01A093D001B09370
:1005C000D10181EE91E00E945303AA2797FDA095E7
:1005D000BA2F4091CE015091CF016091D00170911E
:1005E000D101482B592B6A2B7B2B4093CE01509382
:1005F000CF016093D0017093D1010150110969F6C8
:1006000061E771E08AEA92E00E94EF0D6091D20109
:100610007091D3018091D4019091D5010E94E9108D
:1006200020E034E244E759E40E944E1045E00E9485
:10063000BC008AEA92E00E94F80D66E771E08AEA5F
:1006400092E00E94EF0D6091CE017091CF018091F8
:10065000D0019091D1010E94E91020E034E244E7FA
:1006600059E40E944E1045E00E94BC008AEA92E0E4
:100670000E94F80D6AE070E080E090E00E94D60AE7
:10068000E8960FB6F894DEBF0FBECDBFDF91CF91D5
:100690001F910F9108958091110290E02091120214
:1006A000821B91090895209112028091110228174E
:1006B00050F4E22FF0E0ED5EFD4F808190E02F5F7F
:1006C0002093120208958FEF9FEF0895E091120298
:1006D00080911102E81730F4F0E0ED5EFD4F80816B
:1006E00090E008958FEF9FEF08950895CF92DF92E5
:1006F000EF92FF920F931F93CF93DF937C01CB0177
:100700008A012091ED01222389F0EB016B01C40ED7
:10071000D51ECC15DD0569F06991D701ED91FC91ED
:100720000190F081E02DC7010995F3CF642F0E945D
:100730003605C801DF91CF911F910F91FF90EF9087
:10074000DF90CF900895CF93DF931F92CDB7DEB7A0
:1007500069832091ED012223D1F02091EE01203216
:1007600040F021E030E0FC013383228380E090E020
:1007700015C08091EF01E82FF0E0E051FE4F998124
:1007800090838F5F8093EF018093EE0105C061E05D
:10079000CE0101960E94360581E090E00F90DF9136
:1007A000CF910895FC011382128248EE53E060E07D
:1007B00070E044835583668377838DE891E091836D
:1007C0008083089510921202109211021092EF018C
:1007D0001092EE010C94790481E08093ED01609316
:1007E00010021092EF011092EE0108950C94EC03A8
:1007F0000F93062F21E04091EE0160EF71E08091B0
:1008000010020E94DF041092EF011092EE0110928C
:10081000ED010F9108958F929F92AF92BF92CF9268
:10082000DF92EF92FF920F931F93CF93DF93EC0130
:10083000F62ED42E48015901EE2019F10E94EC0346
:100840001E2D143008F013E01150B8F0E881F98142
:1008500028E0129FB0011124A501940104C056950F
:100860004795379527956A95D2F7CA01B901019046
:10087000F081E02DCE010995E7CF60E0CE010E9426
:10088000F8034D2D413208F040E22C2D63E172E077
:100890008F2D0E9497041092120280931102DF9113
:1008A000CF911F910F91FF90EF90DF90CF90BF906D
:1008B000AF909F908F900895CF92EF920F931F93D8
:1008C000C22EE12C00E010E098010E940B041F9161
:1008D0000F91EF90CF90089521E00C945C0421E0FB
:1008E0000C945C0461E00C94F80381EE91E00C94AC
:1008F000D2031092A00281E080939E0210929D028A
:1009000061E082E10E94740B61E083E10E94740B5C
:10091000E9EBF0E080818E7F808380818D7F808312
:1009200080E28093B80085E48093BC000895413252
:1009300008F043C09091A0029111FCCF91E09093F8
:10094000A00220939E022FEF209333021092780290
:10095000240F2093770290939F0290919F02880F1B
:10096000892B80939F0280919D02813061F41092C7
:100970009D0280919F028093BB008091BC0083FD0B
:10098000F8CF85EC01C085EE8093BC008091A00279
:100990008130E1F380917802841710F4409178025D
:1009A00029E732E0FB01D9018A2F821B841718F452
:1009B0008D918193F9CF842F089580E008950F934E
:1009C000413208F04AC09091A0029111FCCF92E010
:1009D0009093A00200939E029FEF90933302109297
:1009E000780240937702FB0169E772E0DB019A2FFE
:1009F000961B941718F491919D93F9CF10929F0232
:100A000090919F02880F892B80939F0280919D0275
:100A1000813061F410929D0280919F028093BB000F
:100A20008091BC0083FDF8CF85EC01C085EE8093FA
:100A3000BC00222321F08091A0028230E1F380915A
:100A400033028F3F61F080913302803251F0809108
:100A50003302803341F483E007C081E005C080E0C9
:100A600003C082E001C084E00F910895613298F4E0
:100A70002091A002243089F460935502FC0187E59F
:100A800092E0DC012A2F281B261718F421912D93C0
:100A9000F9CF80E0089581E0089582E0089585ED22
:100AA0008093BC008091BC0084FDFCCF1092A0021A
:100AB000089585EC8093BC001092A00208951F92C7
:100AC0000F920FB60F9211242F933F934F935F9382
:100AD0006F937F938F939F93AF93BF93EF93FF9306
:100AE0008091B900887F803609F49EC078F58832FD
:100AF00009F45DC090F4803109F456C038F48823BD
:100B000009F4F5C0883009F44FC0F5C0883109F404
:100B10004EC0803209F45FC0EEC0803409F46AC070
:100B200058F4803309F457C0883309F0E4C0809347
:100B300033020E945905DFC0803509F44FC0883563
:100B400009F45DC0883409F0D6C0D3C0883909F4EF
:100B5000C4C0A8F4883709F467C038F4883609F4AB
:100B600063C0803709F460C0C6C0883809F4B5C0D6
:100B7000803909F45FC0803809F0BDC05BC0803B9C
:100B800009F483C038F4803A09F466C0883A09F45D
:100B90007CC0B1C0803C09F4A4C0883C09F4A1C069
:100BA000883B09F487C0A7C080919F0210C0909134
:100BB000780280917702981770F5E091780281E0D1
:100BC0008E0F80937802F0E0E758FD4F808180938C
:100BD000BB0085EC83C0809333028BC0E091780228
:100BE00081E08E0F809378028091BB00F0E0E7589F
:100BF000FD4F808390917802809177026BC0E091E5
:100C0000780281E08E0F809378028091BB00F0E043
:100C1000E758FD4F808380919E0281116AC081E078
:100C200080939D0284EA5EC083E08093A0021092CC
:100C30003402CFCF80913402803208F04EC0E09170
:100C4000340281E08E0F809334028091BB00F0E08B
:100C5000EB5CFD4F8083BDCF0E945905809134022B
:100C6000803230F4E0913402F0E0EB5CFD4F108212
:100C70006091340270E0E0919902F0919A0285E36C
:100C800092E009951092340236C084E08093A0026D
:100C90001092560210925502E0919B02F0919C0234
:100CA000099580915502811105C081E0809355021C
:100CB00010925702E091560281E08E0F8093560207
:100CC000F0E0E95AFD4F80818093BB00909156027D
:100CD00080915502981708F47CCF85E88093BC007A
:100CE0000AC085EC8093BC001092A00204C0109250
:100CF00033020E944F05FF91EF91BF91AF919F91F9
:100D00008F917F916F915F914F913F912F910F90B4
:100D10000FBE0F901F9018952FE731E0FC01318333
:100D2000208308952FE731E0FC01318320830C9468
:100D3000E20F0F931F93CF93DF938C01EB0188E2B7
:100D4000FB0111928A95E9F74BE050E069E971E007
:100D5000CE010E9472131B8641E050E060E070E01B
:100D60004C875D876E877F87F80144815581668156
:100D70007781488B598B6A8B7B8B43E050E060E036
:100D800070E04C8B5D8B6E8B7F8B1CA21DA21EA214
:100D90001FA2188E198E1A8E1B8E1C8E1D8E1E8EF3
:100DA0001F8E4AE057ED63E27CE348A359A36AA390
:100DB0007BA3DF91CF911F910F910895FC0184EAED
:100DC00091E0918380834483558366837783238373
:100DD00008951F93CF93DF931F92CDB7DEB7162FE1
:100DE000FC01638181EE91E049830E94EC03612F55
:100DF00081EE91E00E94A3034981642F81EE91E08E
:100E00000E94A30381EE91E00E94720481E00F90A2
:100E1000DF91CF911F910895462FFC016087718764
:100E20006DE370E00E94E9066EE170E080E090E022
:100E30000C94D60AFF920F931F93CF93DF93EC018C
:100E4000F62E0885198560E070E00E940C0769E1C4
:100E500070E080E090E00E94D60A40E067E070E039
:100E6000CE010E94E906FF2011F040E801C040E0F9
:100E70006FE370E0CE010E94E9066AE070E080E076
:100E800090E00E94D60AB801CE010E940C0764E1EE
:100E900070E080E090E0DF91CF911F910F91FF9083
:100EA0000C94D60A1F93CF93DF93EC01162F6B811E
:100EB00081EE91E00E94EC03612F81EE91E00E94AF
:100EC000A30381EE91E00E94720441E06B8181EE08
:100ED00091E00E946C0481EE91E00E945303DF9147
:100EE000CF911F9108950F931F93CF93DF93EC0140
:100EF0008B0181EE91E00E94E20360E070E0CE01A0
:100F00000E945207803A61F460E070E0CE010E94D6
:100F10000C0740E26FE370E0CE010E94E9060FC0CB
:100F200068EE73E080E090E00E94D60A60E070E036
:100F3000CE010E945207803A39F380E03DC060E064
:100F400070E0CE010E945207803A39F06AE070E00A
:100F500080E090E00E94D60AF2CF62E370E080E089
:100F600090E00E94D60A40E06EE370E0CE010E945D
:100F7000E9066AE070E080E090E00E94D60A40E076
:100F800067E070E0CE010E94E90640E06FE370E0A8
:100F9000CE010E94E9066AE070E080E090E00E94E5
:100FA000D60AB801CE010E940C0764E170E080E02F
:100FB00090E00E94D60A81E0DF91CF911F910F91BE
:100FC0000895CF92DF92EF92FF920F931F93CF93EA
:100FD000DF93EB017A01690165E370E00E9452073B
:100FE000209731F0982F92959695969593709883C7
:100FF000E114F10451F0682F70E024E075956795D5
:101000002A95E1F76370F7016083C114D10449F0B8
:10101000482F50E055954795559547954370F601F3
:1010200040830115110519F08370F8018083DF9169
:10103000CF911F910F91FF90EF90DF90CF90089587
:10104000CF92DF92FF920F931F93CF93DF931F9264
:10105000CDB7DEB76C01F62E042F122FFC01638191
:1010600081EE91E059830E94EC036F2D81EE91E0B7
:101070000E94A30381EE91E00E947204412FF601C9
:10108000638181EE91E00E946C04F02EC02E5981A4
:10109000D52E8C2D8F19811740F481EE91E00E949E
:1010A0005303F60181936F01F4CF81E00F90DF913C
:1010B000CF911F910F91FF90DF90CF900895AF9245
:1010C000BF92CF92DF92EF92FF920F931F93CF9335
:1010D000DF9300D000D000D0CDB7DEB78C01CB01BC
:1010E0005A012CE0F80111922A95E9F7AE014F5F01
:1010F0005F4F26E0FA0111922A95E9F726E0B50143
:101100000E9420086A8170E0762F66278981682B0B
:10111000CC80D12CDC2CCC248B81C82AEE80F12C05
:10112000FE2CEE248D81E82AF4E1AF16B104D9F04B
:101130005CF4E8E0AE16B10409F475C0FEE0AF1649
:10114000B10409F43FC0A4C088E2A816B10409F4B0
:101150006AC0EEE2AE16B10409F465C0FAE1AF165A
:10116000B10481F195C0882777FD8095982F0E9462
:10117000E91020E030E041E654E40E944E10F8010E
:101180006083718382839383B601882777FD80957E
:10119000982F0E94E91020E030E041E654E40E94DC
:1011A0004E10F8016483758386839783B70188277F
:1011B00077FD8095982F0E94E91020E030E041E60D
:1011C00054E45FC0882777FD8095982F0E94E9102E
:1011D00020E030E040E85DE30E949D11F80160836B
:1011E000718382839383B601882777FD8095982F3A
:1011F0000E94E91020E030E040E85DE30E949D118C
:10120000F8016483758386839783B701882777FD08
:101210008095982F0E94E91020E030E040E85DE3DF
:101220000E949D1130C0882777FD8095982F0E94DD
:10123000E91020E030E048EC52E40E944E10F80142
:101240006083718382839383B601882777FD8095BD
:10125000982F0E94E91020E030E048EC52E40E9410
:101260004E10F8016483758386839783B7018827BE
:1012700077FD8095982F0E94E91020E030E048EC3F
:1012800052E40E944E10F80160877187828793872D
:10129000C80126960FB6F894DEBF0FBECDBFDF9112
:1012A000CF911F910F91FF90EF90DF90CF90BF9063
:1012B000AF900895EF92FF920F931F93CF93DF9318
:1012C000CDB7DEB72C970FB6F894DEBF0FBECDBFFB
:1012D0007C018B0184E2FB0111928A95E9F784E29B
:1012E00090E0A0E0B0E0FB0180839183A283B38310
:1012F000F70184819581A681B781FB018483958361
:10130000A683B78383E090E0A0E0B0E08087918778
:10131000A287B3870E94A70AF801608B718B828B2A
:10132000938B4AE150E0B701CE0101960E945F081D
:1013300089819A81AB81BC81F801848B958BA68BC6
:10134000B78B8D819E81AF81B885808F918FA28F61
:10135000B38F89859A85AB85BC85848F958FA68F41
:10136000B78F81E02C960FB6F894DEBF0FBECDBFCD
:10137000DF91CF911F910F91FF90EF9008954F92C1
:101380005F926F927F928F929F92AF92BF92CF9215
:10139000DF92EF92FF920F931F93CF93DF93CDB71E
:1013A000DEB728970FB6F894DEBF0FBECDBF8C0115
:1013B000CB01AE014F5F5F4F28E0FA0111922A95F1
:1013C000E9F728E060E270E00E942008688570E09C
:1013D000762F66278F81682B882777FD8095982F39
:1013E0000E94E91020E030E040E858E30E949D119F
:1013F0006B017C016E8170E0762F66278D81682BF2
:10140000882777FD8095982F0E94E91020E030E032
:1014100040E858E30E949D114B015C016C8170E033
:10142000762F66278B81682B882777FD8095982FEC
:101430000E94E91020E030E040E858E30E949D114E
:101440002B013C016A8170E0762F66278981682B29
:10145000882777FD8095982F0E94E91020E030E0E2
:1014600040E858E30E949D11F801608371838283F4
:101470009383448255826682778280869186A28693
:10148000B386C486D586E686F786C80128960FB649
:10149000F894DEBF0FBECDBFDF91CF911F910F91AA
:1014A000FF90EF90DF90CF90BF90AF909F908F9084
:1014B0007F906F905F904F9008951F920F920FB69C
:1014C0000F9211242F933F938F939F93AF93BF93CA
:1014D0008091A2029091A302A091A402B091A502D2
:1014E0003091A10226E0230F2D3720F40296A11D92
:1014F000B11D05C029E8230F0396A11DB11D20933E
:10150000A1028093A2029093A302A093A402B0939D
:10151000A5028091A6029091A702A091A802B09185
:10152000A9020196A11DB11D8093A6029093A70266
:10153000A093A802B093A902BF91AF919F918F9100
:101540003F912F910F900FBE0F901F9018952FB7BE
:10155000F8946091A2027091A3028091A4029091EC
:10156000A5022FBF08953FB7F8948091A6029091ED
:10157000A702A091A802B091A90226B5A89B05C018
:101580002F3F19F00196A11DB11D3FBF6627782F8F
:10159000892F9A2F620F711D811D911D43E0660FE7
:1015A000771F881F991F4A95D1F708958F929F92B0
:1015B000AF92BF92CF92DF92EF92FF926B017C01CC
:1015C0000E94B30A4B015C01C114D104E104F1048F
:1015D000F1F00E94E40F0E94B30A681979098A09A0
:1015E0009B09683E73408105910570F321E0C21AA2
:1015F000D108E108F10888EE880E83E0981EA11C4E
:10160000B11CC114D104E104F10429F7DDCFFF902E
:10161000EF90DF90CF90BF90AF909F908F90089504
:10162000789484B5826084BD84B5816084BD85B5BD
:10163000826085BD85B5816085BDEEE6F0E0808184
:1016400081608083E1E8F0E01082808182608083A5
:10165000808181608083E0E8F0E080818160808328
:10166000E1EBF0E0808184608083E0EBF0E080815A
:1016700081608083EAE7F0E08081846080838081FC
:101680008260808380818E7F808380818068808378
:101690001092C1000895833081F028F4813099F0D0
:1016A0008230A1F008958730A9F08830B9F08430F5
:1016B000D1F4809180008F7D03C0809180008F776E
:1016C00080938000089584B58F7702C084B58F7DA4
:1016D00084BD08958091B0008F7703C08091B000E1
:1016E0008F7D8093B00008950F931F93CF93DF9366
:1016F0001F92CDB7DEB7282F30E0F901EC58FF4F2D
:101700008491F901E857FF4F1491F901E456FF4F16
:1017100004910023C9F0882321F069830E944B0BB8
:101720006981E02FF0E0EE0FFF1FE055FF4FA5911C
:10173000B4919FB7F8948C91611103C010958123E7
:1017400001C0812B8C939FBF0F90DF91CF911F9190
:101750000F910895FC01818D228D90E0805C9F4F58
:10176000821B91098F7399270895FC01918D828DB9
:10177000981731F0828DE80FF11D858D90E0089566
:101780008FEF9FEF0895FC01918D828D981761F086
:10179000828DDF01A80FB11D5D968C91928D9F5FA8
:1017A0009F73928F90E008958FEF9FEF089581E4EB
:1017B0009DE0892B49F080E090E0892B29F00E9480
:1017C000410D81110C9400000895FC01848DDF010E
:1017D000A80FB11DA35ABF4F2C91848D90E00196A4
:1017E0008F739927848FA689B7892C93A089B18993
:1017F0008C9180648C93938D848D981306C002889D
:10180000F389E02D80818F7D80830895CF93DF93CE
:10181000EC01888D8823C9F0EA89FB89808185FDE8
:1018200005C0A889B9898C9186FD0FC00FB607FC49
:10183000F5CF808185FFF2CFA889B9898C9185FF8A
:10184000EDCFCE010E94E50BE7CFDF91CF91089558
:10185000CF92DF92FF920F931F93CF93DF931F924C
:10186000CDB7DEB76C0181E0D60158968C935897BE
:101870005B969C915B975C968C915C97981307C0E4
:101880005096ED91FC915197808185FD2EC0F60117
:10189000038D10E00F5F1F4F0F731127F02EF6011D
:1018A000848DF81211C00FB607FCF9CFD6015096FF
:1018B000ED91FC915197808185FFF1CFC60169833D
:1018C0000E94E50B6981EBCF838DE80FF11DE35A90
:1018D000FF4F6083D6015B960C935B975296ED9118
:1018E000FC915397808180620CC0D6015696ED9191
:1018F000FC91579760835096ED91FC9151978081B0
:101900008064808381E090E00F90DF91CF911F9100
:101910000F91FF90DF90CF900895BF92CF92DF920A
:10192000EF92FF92CF93DF93EC016A017B01B22E1D
:1019300060E874E88EE190E0A70196010E9404122D
:1019400021503109410951095695479537952795F9
:10195000E889F98982E08083211580E1380798F0D1
:10196000E889F989108260E472E48FE090E0A701D1
:1019700096010E94041221503109410951095695DE
:10198000479537952795EC85FD853083EE85FF8556
:101990002083188EEC89FD89B082EA89FB898081D9
:1019A00080618083EA89FB89808188608083EA89FD
:1019B000FB89808180688083EA89FB8980818F7DB3
:1019C0008083DF91CF91FF90EF90DF90CF90BF9019
:1019D00008951F920F920FB60F9211242F938F9399
:1019E0009F93EF93FF93E091BA02F091BB02808145
:1019F000E091C002F091C10282FD12C090818091FD
:101A0000C3028F5F8F732091C402821751F0E0915F
:101A1000C302F0E0E655FD4F958F8093C30201C0ED
:101A20008081FF91EF919F918F912F910F900FBE29
:101A30000F901F9018951F920F920FB60F921124BE
:101A40002F933F934F935F936F937F938F939F93C6
:101A5000AF93BF93EF93FF938AEA92E00E94E50B66
:101A6000FF91EF91BF91AF919F918F917F916F9176
:101A70005F914F913F912F910F900FBE0F901F904C
:101A800018958AEA92E00E94AA0B21E0892B09F4BA
:101A900020E0822F08951092AD021092AC0288EEE1
:101AA00093E0A0E0B0E08093AE029093AF02A093E9
:101AB000B002B093B10282EB91E09093AB028093BD
:101AC000AA0285EC90E09093B7028093B60284EC72
:101AD00090E09093B9028093B80280EC90E09093EC
:101AE000BB028093BA0281EC90E09093BD02809398
:101AF000BC0282EC90E09093BF028093BE0286EC21
:101B000090E09093C1028093C0021092C3021092A1
:101B1000C4021092C5021092C6020895CF92DF92BD
:101B2000EF92FF920F931F93CF93DF937C016A0193
:101B3000EB0100E010E00C151D0571F06991D70173
:101B4000ED91FC910190F081E02DC7010995892B61
:101B500019F00F5F1F4FEFCFC801DF91CF911F9199
:101B60000F91FF90EF90DF90CF9008956115710570
:101B700081F0DB010D900020E9F7AD0141505109E2
:101B8000461B570BDC01ED91FC910280F381E02DA7
:101B9000099480E090E00895EF92FF920F931F93D5
:101BA000CF93DF938C017B01C0E0D0E0F701EC0F15
:101BB000FD1F6491662359F0F801A081B181ED9178
:101BC000FC91C8010995892B11F02196EFCFCE0128
:101BD000DF91CF911F910F91FF90EF9008950C949A
:101BE000B60DDC01ED91FC910190F081E02D09949E
:101BF0006EEB71E00C94B60D0F931F93CF93DF93B0
:101C0000EC010E94B60D8C01CE010E94F80D800FF0
:101C1000911FDF91CF911F910F9108958F929F9205
:101C2000AF92BF92DF92EF92FF920F931F93CF93E9
:101C3000DF93CDB7DEB7A1970FB6F894DEBF0FBE26
:101C4000CDBF7C01F42FD52ECB0119A2223008F490
:101C50002AE08E010F5D1F4F822E912CA12CB12CFA
:101C60006F2F7D2DA50194010E940412F22FD32E17
:101C7000CA01015011096A3014F4E0E301C0E7E33E
:101C8000E60FD801EC93232B242B252B49F7B80121
:101C9000C7010E94B60DA1960FB6F894DEBF0FBE25
:101CA000CDBFDF91CF911F910F91FF90EF90DF900B
:101CB000BF90AF909F908F900895CF92DF92EF9258
:101CC000FF920F931F93CF93DF93EC016A017B0187
:101CD0002115310579F4E881F9810190F081E02D39
:101CE000642FDF91CF911F910F91FF90EF90DF90C4
:101CF000CF9009942A303105E9F477FF1AC06DE2DC
:101D00000E94F10D8C0144275527BA014C195D0939
:101D10006E097F092AE0CE010E940E0E800F911FEE
:101D2000DF91CF911F910F91FF90EF90DF90CF90B7
:101D300008952AE0B701A601CE01DF91CF911F914E
:101D40000F91FF90EF90DF90CF900C940E0E9A01C0
:101D5000AB01662757FD6095762F0C945D0E21151B
:101D6000310541F4DC01ED91FC910190F081E02D11
:101D7000642F09940C940E0E0F931F93CF93DF934F
:101D8000EC019A01462F50E060E070E00E94AF0E37
:101D90008C01CE010E94F80D800F911FDF91CF9131
:101DA0001F910F9108954F925F926F927F928F9241
:101DB0009F92AF92BF92CF92DF92EF92FF920F93DA
:101DC0001F93CF93DF93EC016A017B01B22E9A013E
:101DD000AB01C701B6010E940012882319F061EC23
:101DE00071E027C026013701E89477F82FEF3FEF25
:101DF0004FE75FE7C301B2010E94001281110DC0DD
:101E00002FEF3FEF4FE75FE7C301B2010E944A1097
:101E100018161CF465EC71E00CC02FEF3FEF4FE794
:101E20005FE4C701B6010E9499111816ACF469EC81
:101E300071E0CE01DF91CF911F910F91FF90EF9054
:101E4000DF90CF90BF90AF909F908F907F906F90DA
:101E50005F904F900C94B60D2FEF3FEF4FE75FEC84
:101E6000C701B6010E944A1087FDE1CF20E030E0B3
:101E7000A901C701B6010E944A1087FF0AC06DE29E
:101E8000CE010E94F10D8C01F7FAF094F7F8F0946E
:101E900002C000E010E0A12C60E070E080E09FE371
:101EA000AB1441F020E030E040E251E40E944E10DB
:101EB000A394F6CF9B01AC01C701B6010E94E60FC7
:101EC0006B017C010E94BB102B013C010E94E710BA
:101ED0009B01AC01C701B6010E94E50F6B017C01BB
:101EE0002AE0B301A201CE010E940E0E080F191FB5
:101EF000BB2039F063E471E0CE010E94B60D080FFB
:101F0000191F7B2C772041F120E030E040E251E4C2
:101F1000C701B6010E949D116B017C010E94B610A1
:101F20004B01AA2497FCA094BA2C2AE030E0B5011A
:101F3000A401CE010E945D0E080F191FC501B40156
:101F40000E94E9109B01AC01C701B6010E94E50F98
:101F50006B017C017A94D6CFC801DF91CF911F919C
:101F60000F91FF90EF90DF90CF90BF90AF909F9038
:101F70008F907F906F905F904F9008950F931F9375
:101F8000CF93DF93EC010E94D30E8C01CE010E940F
:101F9000F80D800F911FDF91CF911F910F91089540
:101FA0000E946D1308950E94100B0E94D20F0E9490
:101FB0009900C7EDDBE00E9485012097E1F30E94C4
:101FC000D70BF9CF0C94DE1208955058BB27AA27DF
:101FD0000ED075C166D130F06BD120F031F49F3F47
:101FE00011F41EF45BC10EF4E095E7FB51C1E92F3B
:101FF00077D180F3BA17620773078407950718F043
:1020000071F49EF58FC10EF4E0950B2EBA2FA02D22
:102010000B01B90190010C01CA01A0011124FF2795
:10202000591B99F0593F50F4503E68F11A16F04090
:10203000A22F232F342F4427585FF3CF469537958F
:102040002795A795F0405395C9F77EF41F16BA0B54
:10205000620B730B840BBAF09150A1F0FF0FBB1F02
:10206000661F771F881FC2F70EC0BA0F621F731F4B
:10207000841F48F4879577956795B795F7959E3FA8
:1020800008F0B3CF9395880F08F09927EE0F979536
:1020900087950895D9D008F481E008950CD00FC138
:1020A00007D140F0FED030F021F45F3F19F0F0C0CE
:1020B000511139C1F3C014D198F39923C9F35523B1
:1020C000B1F3951B550BBB27AA276217730784072B
:1020D00038F09F5F5F4F220F331F441FAA1FA9F3E1
:1020E00033D00E2E3AF0E0E830D091505040E695D3
:1020F000001CCAF729D0FE2F27D0660F771F881F34
:10210000BB1F261737074807AB07B0E809F0BB0B22
:10211000802DBF01FF2793585F4F2AF09E3F510546
:1021200068F0B6C000C15F3FECF3983EDCF38695E3
:1021300077956795B795F7959F5FC9F7880F911DBC
:102140009695879597F90895E1E0660F771F881FA8
:10215000BB1F621773078407BA0720F0621B730B5B
:10216000840BBA0BEE1F88F7E095089504D06894AD
:10217000B111D9C00895BCD088F09F5790F0B92F05
:102180009927B751A0F0D1F0660F771F881F991FCC
:102190001AF0BA95C9F712C0B13081F0C3D0B1E0DE
:1021A0000895C0C0672F782F8827B85F39F0B93FEE
:1021B000CCF3869577956795B395D9F73EF49095CE
:1021C0008095709561957F4F8F4F9F4F0895E8944C
:1021D00009C097FB3EF490958095709561957F4F6F
:1021E0008F4F9F4F9923A9F0F92F96E9BB2793951D
:1021F000F695879577956795B795F111F8CFFAF42D
:10220000BB0F11F460FF1BC06F5F7F4F8F4F9F4F5D
:1022100016C0882311F096E911C0772321F09EE8BB
:10222000872F762F05C0662371F096E8862F70E021
:1022300060E02AF09A95660F771F881FDAF7880FFB
:102240009695879597F90895990F0008550FAA0B51
:10225000E0E8FEEF16161706E807F907C0F01216B9
:102260001306E407F50798F0621B730B840B950BBC
:1022700039F40A2661F0232B242B252B21F4089511
:102280000A2609F4A140A6958FEF811D811D0895AE
:1022900097F99F6780E870E060E008959FEF80EC19
:1022A000089500240A9416161706180609060895BC
:1022B00000240A9412161306140605060895092E22
:1022C0000394000C11F4882352F0BB0F40F4BF2B91
:1022D00011F460FF04C06F5F7F4F8F4F9F4F0895D1
:1022E00057FD9058440F551F59F05F3F71F04795C7
:1022F000880F97FB991F61F09F3F79F087950895AC
:10230000121613061406551FF2CF4695F1DF08C0CA
:10231000161617061806991FF1CF869571056105E7
:1023200008940895E894BB2766277727CB0197F98F
:1023300008958ADF08F48FEF08950BD0C0CFB1DF86
:1023400028F0B6DF18F0952309F0A2CFA7CF11240B
:10235000EACFC6DFA0F3959FD1F3950F50E0551F4C
:10236000629FF001729FBB27F00DB11D639FAA27EA
:10237000F00DB11DAA1F649F6627B00DA11D661F39
:10238000829F2227B00DA11D621F739FB00DA11D5A
:10239000621F839FA00D611D221F749F3327A00D14
:1023A000611D231F849F600D211D822F762F6A2FB0
:1023B00011249F5750408AF0E1F088234AF0EE0F35
:1023C000FF1FBB1F661F771F881F91505040A9F742
:1023D0009E3F510570F05CCFA6CF5F3FECF3983E77
:1023E000DCF3869577956795B795F795E7959F5FA9
:1023F000C1F7FE2B880F911D9695879597F9089543
:1024000023DF880B990B0895A1E21A2EAA1BBB1B90
:10241000FD010DC0AA1FBB1FEE1FFF1FA217B307B0
:10242000E407F50720F0A21BB30BE40BF50B661FC6
:10243000771F881F991F1A9469F76095709580958A
:1024400090959B01AC01BD01CF0108950E94371208
:10245000A59F900DB49F900DA49F800D911D1124F8
:102460000895EE0FFF1F0590F491E02D0994A29FAF
:10247000B001B39FC001A39F700D811D1124911D58
:10248000B29F700D811D1124911D0895CF93DF938C
:102490008230910510F482E090E0E0914903F091E0
:1024A0004A0320E030E0A0E0B0E0309739F140810D
:1024B000518148175907B8F04817590771F48281BC
:1024C0009381109729F013969C938E9312972CC0AA
:1024D00090934A038093490327C02115310531F0B9
:1024E0004217530718F0A901DB0101C0EF019A015F
:1024F000BD01DF010280F381E02DD7CF2115310529
:10250000F9F0281B390B2430310580F48A819B8136
:102510006115710521F0FB019383828304C09093C0
:102520004A0380934903FE01329644C0FE01E20F44
:10253000F31F8193919322503109398328833AC044
:102540002091470330914803232B41F4209102014D
:1025500030910301309348032093470320910001F9
:10256000309101012115310541F42DB73EB740915D
:10257000040150910501241B350BE0914703F091B4
:102580004803E217F307A0F42E1B3F0B2817390767
:1025900078F0AC014E5F5F4F2417350748F04E0FBF
:1025A0005F1F50934803409347038193919302C068
:1025B000E0E0F0E0CF01DF91CF910895CF93DF937A
:1025C000009709F487C0FC01329713821282C091F0
:1025D0004903D0914A03209781F420813181280F4B
:1025E000391F80914703909148038217930779F52B
:1025F000F0934803E09347036DC0DE0120E030E034
:10260000AE17BF0750F412964D915C9113979D0140
:102610004115510509F1DA01F3CFB383A28340815B
:102620005181840F951F8A179B0771F48D919C919E
:102630001197840F951F02969183808312968D9136
:102640009C911397938382832115310529F4F0938C
:102650004A03E09349033EC0D9011396FC93EE93DD
:1026600012974D915D91A40FB51FEA17FB0779F4FE
:1026700080819181840F951F0296D90111969C93B8
:102680008E938281938113969C938E931297E0E0B0
:10269000F0E08A819B81009719F0FE01EC01F9CFEF
:1026A000CE01029628813981820F931F2091470322
:1026B000309148032817390769F4309729F41092AC
:1026C0004A031092490302C013821282D093480336
:1026D000C0934703DF91CF91089581E090E0F89493
:1026E0000C948113FB01DC014150504048F00190F3
:1026F0000D920020C9F701C01D9241505040E0F7F3
:10270000089510E0C0ECD0E004C0FE010E94331236
:0C2710002296C23CD107C9F7F894FFCF15
:10271C0000004B0380004F6F6F70732C206E6F2086
:10272C00424E4F30353520646574656374656420A2
:10273C002E2E2E20436865636B20796F757220777F
:10274C006972696E67206F7220493243204144449C
:10275C005221002E003000513A002C00533A004711
:10276C003A00413A004D3A004E6F20736174656C2B
:10277C006C697465207369676E616C206C6F636B38
:10278C00004C41543A004C4F4E3A00000000008B74
:10279C000092009100D00FD00F00000000A3037630
:1027AC00034B03530366037503424E4F303535001C
:1027BC00000000008C06920691005A099906000050
:1027CC000000280C8E0DAA0BC30BB50B060C0D0AC2
:0E27DC00006E616E00696E66006F766600002A
:00000001FF
